:020000020000FC
:100000000FC00DC00CC00BC00AC009C008C007C09B
:1000100006C005C004C003C002C001C000C01895DE
:100020002FE52DBF02E02EBF31E04FE350E02FEF70
:1000300027BB38BB73E041D07A95E9F773E051D024
:100040007A95E9F773E039D07A95E9F77AE05DD0EF
:100050007A95E9F77AE159D07A95E9F770EC75D09D
:100060007A95E9F779E151D07A95E9F771E05AD0BC
:100070007A95E1F773E021D07A95E9F773E031D012
:100080007A95E9F773E019D07A95E9F771E059D0DC
:100090007A95E9F77AE039D07A95E9F77AE135D0BF
:1000A0007A95E9F770EC51D07A95E9F778E12DD09F
:1000B0007A95E9F771E029D0BDCF58BB6CE06A951D
:1000C000F1F738BB6CE96A95F1F70000000058BB06
:1000D0006CE06A95F1F738BB69E96A95F1F70000C1
:1000E000089558BB60E96A95F1F738BB68E16A95F5
:1000F000F1F70000000058BB60E96A95F1F738BBE2
:1001000065E16A95F1F70000089558BB68E16A95CA
:10011000F1F70000000038BB6AEB000000006A95B0
:10012000E1F7089558BB68E16A95F1F70000000017
:1001300038BB64E5000000006A95E1F700000000AC
:10014000089566EA6A95F1F7089558BB68E16A95E3
:10015000F1F70000000038BB68E16A95F1F7000094
:1001600000008FE1F1E0E2ED2591000000000000C9
:1001700028BB66E06A95F1F72591000000008A959A
:10018000B9F7000038BB63E06A95F1F7089558BBF2
:1001900068E16A95F1F70000000038BB68E16A95F4
:1001A000F1F7000000008FE1F2E0E0E125910000AE
:1001B0000000000028BB66E06A95F1F72591000079
:1001C00000008A95B9F7000038BB63E06A95F1F743
:1001D00008952100030023000500250007002700E3
:1001E000090029000B002B000D002D000F002F002F
:1001F00011003100130033001500350017003700DF
:10020000190039001B003B001D003D001F003F008E
:100210003F001F003D001D003B001B00390019007E
:1002200037001700350015003300130031001100AE
:100230002F000F002D000D002B000B0029000900DE
:0E024000270007002500050023000300210011
:00000001FF
